:020000040000FA
:040000007CEF00F0A1
:020004000000FA
:0200080008D01E
:0800180004D0F2B420EF00F067
:100020001100F2B420EF00F01100F80E926A030EF6
:10003000966A1200006A016A006A026A036A120084
:10004000F294670ED66E896A00808D80022AD8B03D
:10005000032A020E035CD8A437EF00F00D0E025CF9
:10006000D8A43CEF00F0036A026A3FEF00F0000002
:10007000000000000000000000000000000003502D
:10008000D8A44AEF00F0020E02604EEF00F08D821D
:1000900051EF00F000000000000000008D92000011
:1000A000000002502308D8B4008202500208D8A4ED
:1000B00063EF00F08D9003500208D8A468EF00F0C1
:1000C00000926BEF00F08D90000000000000000037
:1000D00000006BEF00F000000000000000000000D6
:1000E0001100C00ED56EFF0ED76E670ED66EF28A67
:1000F0001200F28EF28C120015EC00F01AEC00F0F7
:1001000071EC00F079EC00F0056A00A284EF00F0D9
:1001100000A088EF00F00550896E050E046E000007
:10012000042E8FEF00F0052A080E055CD8A48BEF93
:0A01300000F0896A009084EF00F0EF
:020000040030CA
:0100010006F8
:010003001EDE
:010005008179
:00000001FF